{
  "_format": "hh-sol-artifact-1",
  "contractName": "DistributionEvent",
  "sourceName": "contracts/DistributionEvent.sol",
  "abi": [
    {
      "anonymous": false,
      "inputs": [
        {
          "indexed": true,
          "internalType": "uint256",
          "name": "eventId",
          "type": "uint256"
        },
        {
          "indexed": true,
          "internalType": "uint256",
          "name": "voucherId",
          "type": "uint256"
        },
        {
          "indexed": false,
          "internalType": "string",
          "name": "status",
          "type": "string"
        }
      ],
      "name": "DistributionRecorded",
      "type": "event"
    },
    {
      "inputs": [
        {
          "internalType": "uint256",
          "name": "",
          "type": "uint256"
        }
      ],
      "name": "eventsById",
      "outputs": [
        {
          "internalType": "uint256",
          "name": "id",
          "type": "uint256"
        },
        {
          "internalType": "uint256",
          "name": "programId",
          "type": "uint256"
        },
        {
          "internalType": "uint256",
          "name": "voucherId",
          "type": "uint256"
        },
        {
          "internalType": "bytes32",
          "name": "beneficiaryHash",
          "type": "bytes32"
        },
        {
          "internalType": "uint256",
          "name": "timestamp",
          "type": "uint256"
        },
        {
          "internalType": "string",
          "name": "status",
          "type": "string"
        }
      ],
      "stateMutability": "view",
      "type": "function"
    },
    {
      "inputs": [],
      "name": "nextEventId",
      "outputs": [
        {
          "internalType": "uint256",
          "name": "",
          "type": "uint256"
        }
      ],
      "stateMutability": "view",
      "type": "function"
    },
    {
      "inputs": [
        {
          "internalType": "uint256",
          "name": "programId",
          "type": "uint256"
        },
        {
          "internalType": "uint256",
          "name": "voucherId",
          "type": "uint256"
        },
        {
          "internalType": "bytes32",
          "name": "beneficiaryHash",
          "type": "bytes32"
        },
        {
          "internalType": "string",
          "name": "status",
          "type": "string"
        }
      ],
      "name": "recordDistribution",
      "outputs": [
        {
          "internalType": "uint256",
          "name": "",
          "type": "uint256"
        }
      ],
      "stateMutability": "nonpayable",
      "type": "function"
    }
  ],
  "bytecode": "0x6080604052600160005534801561001557600080fd5b50610578806100256000396000f3fe608060405234801561001057600080fd5b50600436106100415760003560e01c80632e30fceb146100465780636d7524ee1461006c5780639f9d903a14610091575b600080fd5b610059610054366004610272565b61009a565b6040519081526020015b60405180910390f35b61007f61007a3660046102ff565b6101ae565b60405161006396959493929190610318565b61005960005481565b60008054819081806100ab8361038b565b9190505590506040518060c0016040528082815260200188815260200187815260200186815260200142815260200185858080601f016020809104026020016040519081016040528093929190818152602001838380828437600092018290525093909452505083815260016020818152604092839020855181559085015191810191909155908301516002820155606083015160038201556080830151600482015560a083015190915060058201906101659082610453565b5090505085817f73598f9e7c3e680beb6734ae9599ac4ba431f7366b79ac63cb83847b5692e109868660405161019c929190610513565b60405180910390a39695505050505050565b60016020528060005260406000206000915090508060000154908060010154908060020154908060030154908060040154908060050180546101ef906103c8565b80601f016020809104026020016040519081016040528092919081815260200182805461021b906103c8565b80156102685780601f1061023d57610100808354040283529160200191610268565b820191906000526020600020905b81548152906001019060200180831161024b57829003601f168201915b5050505050905086565b60008060008060006080868803121561028a57600080fd5b853594506020860135935060408601359250606086013567ffffffffffffffff808211156102b757600080fd5b818801915088601f8301126102cb57600080fd5b8135818111156102da57600080fd5b8960208285010111156102ec57600080fd5b9699959850939650602001949392505050565b60006020828403121561031157600080fd5b5035919050565b8681526000602087602084015286604084015285606084015284608084015260c060a084015283518060c085015260005b818110156103655785810183015185820160e001528201610349565b50600060e0828601015260e0601f19601f83011685010192505050979650505050505050565b6000600182016103ab57634e487b7160e01b600052601160045260246000fd5b5060010190565b634e487b7160e01b600052604160045260246000fd5b600181811c908216806103dc57607f821691505b6020821081036103fc57634e487b7160e01b600052602260045260246000fd5b50919050565b601f82111561044e576000816000526020600020601f850160051c8101602086101561042b5750805b601f850160051c820191505b8181101561044a57828155600101610437565b5050505b505050565b815167ffffffffffffffff81111561046d5761046d6103b2565b6104818161047b84546103c8565b84610402565b602080601f8311600181146104b6576000841561049e5750858301515b600019600386901b1c1916600185901b17855561044a565b600085815260208120601f198616915b828110156104e5578886015182559484019460019091019084016104c6565b50858210156105035787850151600019600388901b60f8161c191681555b5050505050600190811b01905550565b60208152816020820152818360408301376000818301604090810191909152601f909201601f1916010191905056fea2646970667358221220b160f648302dbddb40e0e2fc7a3be1c51511bc18dd4a52c144ee76eb4d04b5df64736f6c63430008180033",
  "linkReferences": {},
  "deployedLinkReferences": {}
}