{"contracts/BeneficiaryRegistry.sol":{"BeneficiaryRegistry":{"abi":[{"anonymous":false,"inputs":[{"indexed":true,"internalType":"bytes32","name":"identityHash","type":"bytes32"},{"indexed":true,"internalType":"uint256","name":"programId","type":"uint256"}],"name":"BeneficiaryRegistered","type":"event"},{"inputs":[{"internalType":"bytes32","name":"","type":"bytes32"}],"name":"beneficiaries","outputs":[{"internalType":"bytes32","name":"identityHash","type":"bytes32"},{"internalType":"uint256","name":"programId","type":"uint256"},{"internalType":"uint256","name":"createdAt","type":"uint256"},{"internalType":"bool","name":"active","type":"bool"}],"stateMutability":"view","type":"function"},{"inputs":[{"internalType":"bytes32","name":"identityHash","type":"bytes32"},{"internalType":"uint256","name":"programId","type":"uint256"}],"name":"registerBeneficiary","outputs":[],"stateMutability":"nonpayable","type":"function"}],"evm":{"bytecode":{"linkReferences":{},"object":"608060405234801561001057600080fd5b50610235806100206000396000f3fe608060405234801561001057600080fd5b50600436106100365760003560e01c806339cd53ee1461003b5780635b825e5114610099575b600080fd5b6100736100493660046101c4565b60006020819052908152604090208054600182015460028301546003909301549192909160ff1684565b604080519485526020850193909352918301521515606082015260800160405180910390f35b6100ac6100a73660046101dd565b6100ae565b005b816100ef5760405162461bcd60e51b815260206004820152600c60248201526b0d2dcecc2d8d2c840d0c2e6d60a31b60448201526064015b60405180910390fd5b6000828152602081905260409020600201541561013f5760405162461bcd60e51b815260206004820152600e60248201526d616c72656164792065786973747360901b60448201526064016100e6565b6040805160808101825283815260208082018481524283850190815260016060850181815260008981529485905286852095518655925190850155516002840155516003909201805460ff1916921515929092179091559051829184917f7cdc72d3df3ebf5c626e07ae9ea6b41e0ea56da2971c02de51cf73ced60a636d9190a35050565b6000602082840312156101d657600080fd5b5035919050565b600080604083850312156101f057600080fd5b5050803592602090910135915056fea2646970667358221220c97a9c1986d04ae9cd46d81282dd0602bacf46e566b9e8d3b78f79dd989e651d64736f6c63430008180033","opcodes":"PUSH1 0x80 PUSH1 0x40 MSTORE CALLVALUE DUP1 ISZERO PUSH2 0x10 JUMPI PUSH1 0x0 DUP1 REVERT JUMPDEST POP PUSH2 0x235 DUP1 PUSH2 0x20 PUSH1 0x0 CODECOPY PUSH1 0x0 RETURN INVALID PUSH1 0x80 PUSH1 0x40 MSTORE CALLVALUE DUP1 ISZERO PUSH2 0x10 JUMPI PUSH1 0x0 DUP1 REVERT JUMPDEST POP PUSH1 0x4 CALLDATASIZE LT PUSH2 0x36 JUMPI PUSH1 0x0 CALLDATALOAD PUSH1 0xE0 SHR DUP1 PUSH4 0x39CD53EE EQ PUSH2 0x3B JUMPI DUP1 PUSH4 0x5B825E51 EQ PUSH2 0x99 JUMPI JUMPDEST PUSH1 0x0 DUP1 REVERT JUMPDEST PUSH2 0x73 PUSH2 0x49 CALLDATASIZE PUSH1 0x4 PUSH2 0x1C4 JUMP JUMPDEST PUSH1 0x0 PUSH1 0x20 DUP2 SWAP1 MSTORE SWAP1 DUP2 MSTORE PUSH1 0x40 SWAP1 KECCAK256 DUP1 SLOAD PUSH1 0x1 DUP3 ADD SLOAD PUSH1 0x2 DUP4 ADD SLOAD PUSH1 0x3 SWAP1 SWAP4 ADD SLOAD SWAP2 SWAP3 SWAP1 SWAP2 PUSH1 0xFF AND DUP5 JUMP JUMPDEST PUSH1 0x40 DUP1 MLOAD SWAP5 DUP6 MSTORE PUSH1 0x20 DUP6 ADD SWAP4 SWAP1 SWAP4 MSTORE SWAP2 DUP4 ADD MSTORE ISZERO ISZERO PUSH1 0x60 DUP3 ADD MSTORE PUSH1 0x80 ADD PUSH1 0x40 MLOAD DUP1 SWAP2 SUB SWAP1 RETURN JUMPDEST PUSH2 0xAC PUSH2 0xA7 CALLDATASIZE PUSH1 0x4 PUSH2 0x1DD JUMP JUMPDEST PUSH2 0xAE JUMP JUMPDEST STOP JUMPDEST DUP2 PUSH2 0xEF JUMPI PUSH1 0x40 MLOAD PUSH3 0x461BCD PUSH1 0xE5 SHL DUP2 MSTORE PUSH1 0x20 PUSH1 0x4 DUP3 ADD MSTORE PUSH1 0xC PUSH1 0x24 DUP3 ADD MSTORE PUSH12 0xD2DCECC2D8D2C840D0C2E6D PUSH1 0xA3 SHL PUSH1 0x44 DUP3 ADD MSTORE PUSH1 0x64 ADD JUMPDEST PUSH1 0x40 MLOAD DUP1 SWAP2 SUB SWAP1 REVERT JUMPDEST PUSH1 0x0 DUP3 DUP2 MSTORE PUSH1 0x20 DUP2 SWAP1 MSTORE PUSH1 0x40 SWAP1 KECCAK256 PUSH1 0x2 ADD SLOAD ISZERO PUSH2 0x13F JUMPI PUSH1 0x40 MLOAD PUSH3 0x461BCD PUSH1 0xE5 SHL DUP2 MSTORE PUSH1 0x20 PUSH1 0x4 DUP3 ADD MSTORE PUSH1 0xE PUSH1 0x24 DUP3 ADD MSTORE PUSH14 0x616C726561647920657869737473 PUSH1 0x90 SHL PUSH1 0x44 DUP3 ADD MSTORE PUSH1 0x64 ADD PUSH2 0xE6 JUMP JUMPDEST PUSH1 0x40 DUP1 MLOAD PUSH1 0x80 DUP2 ADD DUP3 MSTORE DUP4 DUP2 MSTORE PUSH1 0x20 DUP1 DUP3 ADD DUP5 DUP2 MSTORE TIMESTAMP DUP4 DUP6 ADD SWAP1 DUP2 MSTORE PUSH1 0x1 PUSH1 0x60 DUP6 ADD DUP2 DUP2 MSTORE PUSH1 0x0 DUP10 DUP2 MSTORE SWAP5 DUP6 SWAP1 MSTORE DUP7 DUP6 KECCAK256 SWAP6 MLOAD DUP7 SSTORE SWAP3 MLOAD SWAP1 DUP6 ADD SSTORE MLOAD PUSH1 0x2 DUP5 ADD SSTORE MLOAD PUSH1 0x3 SWAP1 SWAP3 ADD DUP1 SLOAD PUSH1 0xFF NOT AND SWAP3 ISZERO ISZERO SWAP3 SWAP1 SWAP3 OR SWAP1 SWAP2 SSTORE SWAP1 MLOAD DUP3 SWAP2 DUP5 SWAP2 PUSH32 0x7CDC72D3DF3EBF5C626E07AE9EA6B41E0EA56DA2971C02DE51CF73CED60A636D SWAP2 SWAP1 LOG3 POP POP JUMP JUMPDEST PUSH1 0x0 PUSH1 0x20 DUP3 DUP5 SUB SLT ISZERO PUSH2 0x1D6 JUMPI PUSH1 0x0 DUP1 REVERT JUMPDEST POP CALLDATALOAD SWAP2 SWAP1 POP JUMP JUMPDEST PUSH1 0x0 DUP1 PUSH1 0x40 DUP4 DUP6 SUB SLT ISZERO PUSH2 0x1F0 JUMPI PUSH1 0x0 DUP1 REVERT JUMPDEST POP POP DUP1 CALLDATALOAD SWAP3 PUSH1 0x20 SWAP1 SWAP2 ADD CALLDATALOAD SWAP2 POP JUMP INVALID LOG2 PUSH5 0x6970667358 0x22 SLT KECCAK256 0xC9 PUSH27 0x9C1986D04AE9CD46D81282DD0602BACF46E566B9E8D3B78F79DD98 SWAP15 PUSH6 0x1D64736F6C63 NUMBER STOP ADDMOD XOR STOP CALLER "},"methodIdentifiers":{"beneficiaries(bytes32)":"39cd53ee","registerBeneficiary(bytes32,uint256)":"5b825e51"}}}}}