{
  "_format": "hh-sol-artifact-1",
  "contractName": "AidVoucher",
  "sourceName": "contracts/AidVoucher.sol",
  "abi": [
    {
      "inputs": [],
      "stateMutability": "nonpayable",
      "type": "constructor"
    },
    {
      "anonymous": false,
      "inputs": [
        {
          "indexed": true,
          "internalType": "address",
          "name": "account",
          "type": "address"
        },
        {
          "indexed": true,
          "internalType": "address",
          "name": "operator",
          "type": "address"
        },
        {
          "indexed": false,
          "internalType": "bool",
          "name": "approved",
          "type": "bool"
        }
      ],
      "name": "ApprovalForAll",
      "type": "event"
    },
    {
      "anonymous": false,
      "inputs": [
        {
          "indexed": true,
          "internalType": "address",
          "name": "operator",
          "type": "address"
        },
        {
          "indexed": true,
          "internalType": "address",
          "name": "from",
          "type": "address"
        },
        {
          "indexed": true,
          "internalType": "address",
          "name": "to",
          "type": "address"
        },
        {
          "indexed": false,
          "internalType": "uint256[]",
          "name": "ids",
          "type": "uint256[]"
        },
        {
          "indexed": false,
          "internalType": "uint256[]",
          "name": "values",
          "type": "uint256[]"
        }
      ],
      "name": "TransferBatch",
      "type": "event"
    },
    {
      "anonymous": false,
      "inputs": [
        {
          "indexed": true,
          "internalType": "address",
          "name": "operator",
          "type": "address"
        },
        {
          "indexed": true,
          "internalType": "address",
          "name": "from",
          "type": "address"
        },
        {
          "indexed": true,
          "internalType": "address",
          "name": "to",
          "type": "address"
        },
        {
          "indexed": false,
          "internalType": "uint256",
          "name": "id",
          "type": "uint256"
        },
        {
          "indexed": false,
          "internalType": "uint256",
          "name": "value",
          "type": "uint256"
        }
      ],
      "name": "TransferSingle",
      "type": "event"
    },
    {
      "anonymous": false,
      "inputs": [
        {
          "indexed": false,
          "internalType": "string",
          "name": "value",
          "type": "string"
        },
        {
          "indexed": true,
          "internalType": "uint256",
          "name": "id",
          "type": "uint256"
        }
      ],
      "name": "URI",
      "type": "event"
    },
    {
      "anonymous": false,
      "inputs": [
        {
          "indexed": true,
          "internalType": "uint256",
          "name": "voucherId",
          "type": "uint256"
        },
        {
          "indexed": true,
          "internalType": "address",
          "name": "holder",
          "type": "address"
        },
        {
          "indexed": false,
          "internalType": "uint256",
          "name": "burnedAt",
          "type": "uint256"
        }
      ],
      "name": "VoucherBurned",
      "type": "event"
    },
    {
      "anonymous": false,
      "inputs": [
        {
          "indexed": true,
          "internalType": "uint256",
          "name": "voucherId",
          "type": "uint256"
        },
        {
          "indexed": true,
          "internalType": "uint256",
          "name": "programId",
          "type": "uint256"
        },
        {
          "indexed": false,
          "internalType": "bytes32",
          "name": "beneficiaryHash",
          "type": "bytes32"
        }
      ],
      "name": "VoucherIssued",
      "type": "event"
    },
    {
      "anonymous": false,
      "inputs": [
        {
          "indexed": true,
          "internalType": "uint256",
          "name": "voucherId",
          "type": "uint256"
        },
        {
          "indexed": false,
          "internalType": "uint256",
          "name": "redeemedAt",
          "type": "uint256"
        }
      ],
      "name": "VoucherRedeemed",
      "type": "event"
    },
    {
      "inputs": [
        {
          "internalType": "address",
          "name": "account",
          "type": "address"
        },
        {
          "internalType": "uint256",
          "name": "id",
          "type": "uint256"
        }
      ],
      "name": "balanceOf",
      "outputs": [
        {
          "internalType": "uint256",
          "name": "",
          "type": "uint256"
        }
      ],
      "stateMutability": "view",
      "type": "function"
    },
    {
      "inputs": [
        {
          "internalType": "address[]",
          "name": "accounts",
          "type": "address[]"
        },
        {
          "internalType": "uint256[]",
          "name": "ids",
          "type": "uint256[]"
        }
      ],
      "name": "balanceOfBatch",
      "outputs": [
        {
          "internalType": "uint256[]",
          "name": "",
          "type": "uint256[]"
        }
      ],
      "stateMutability": "view",
      "type": "function"
    },
    {
      "inputs": [
        {
          "internalType": "uint256",
          "name": "voucherId",
          "type": "uint256"
        }
      ],
      "name": "burnExpiredVoucher",
      "outputs": [],
      "stateMutability": "nonpayable",
      "type": "function"
    },
    {
      "inputs": [
        {
          "internalType": "address",
          "name": "account",
          "type": "address"
        },
        {
          "internalType": "address",
          "name": "operator",
          "type": "address"
        }
      ],
      "name": "isApprovedForAll",
      "outputs": [
        {
          "internalType": "bool",
          "name": "",
          "type": "bool"
        }
      ],
      "stateMutability": "view",
      "type": "function"
    },
    {
      "inputs": [
        {
          "internalType": "uint256",
          "name": "programId",
          "type": "uint256"
        },
        {
          "internalType": "bytes32",
          "name": "beneficiaryHash",
          "type": "bytes32"
        },
        {
          "internalType": "uint256",
          "name": "expiryDays",
          "type": "uint256"
        }
      ],
      "name": "issueVoucher",
      "outputs": [
        {
          "internalType": "uint256",
          "name": "",
          "type": "uint256"
        }
      ],
      "stateMutability": "nonpayable",
      "type": "function"
    },
    {
      "inputs": [
        {
          "internalType": "address",
          "name": "recipient",
          "type": "address"
        },
        {
          "internalType": "uint256",
          "name": "programId",
          "type": "uint256"
        },
        {
          "internalType": "bytes32",
          "name": "beneficiaryHash",
          "type": "bytes32"
        },
        {
          "internalType": "uint256",
          "name": "expiryDays",
          "type": "uint256"
        }
      ],
      "name": "issueVoucherTo",
      "outputs": [
        {
          "internalType": "uint256",
          "name": "",
          "type": "uint256"
        }
      ],
      "stateMutability": "nonpayable",
      "type": "function"
    },
    {
      "inputs": [],
      "name": "nextVoucherId",
      "outputs": [
        {
          "internalType": "uint256",
          "name": "",
          "type": "uint256"
        }
      ],
      "stateMutability": "view",
      "type": "function"
    },
    {
      "inputs": [
        {
          "internalType": "uint256",
          "name": "voucherId",
          "type": "uint256"
        }
      ],
      "name": "redeemVoucher",
      "outputs": [],
      "stateMutability": "nonpayable",
      "type": "function"
    },
    {
      "inputs": [
        {
          "internalType": "address",
          "name": "",
          "type": "address"
        },
        {
          "internalType": "address",
          "name": "",
          "type": "address"
        },
        {
          "internalType": "uint256[]",
          "name": "",
          "type": "uint256[]"
        },
        {
          "internalType": "uint256[]",
          "name": "",
          "type": "uint256[]"
        },
        {
          "internalType": "bytes",
          "name": "",
          "type": "bytes"
        }
      ],
      "name": "safeBatchTransferFrom",
      "outputs": [],
      "stateMutability": "pure",
      "type": "function"
    },
    {
      "inputs": [
        {
          "internalType": "address",
          "name": "",
          "type": "address"
        },
        {
          "internalType": "address",
          "name": "",
          "type": "address"
        },
        {
          "internalType": "uint256",
          "name": "",
          "type": "uint256"
        },
        {
          "internalType": "uint256",
          "name": "",
          "type": "uint256"
        },
        {
          "internalType": "bytes",
          "name": "",
          "type": "bytes"
        }
      ],
      "name": "safeTransferFrom",
      "outputs": [],
      "stateMutability": "pure",
      "type": "function"
    },
    {
      "inputs": [
        {
          "internalType": "address",
          "name": "operator",
          "type": "address"
        },
        {
          "internalType": "bool",
          "name": "approved",
          "type": "bool"
        }
      ],
      "name": "setApprovalForAll",
      "outputs": [],
      "stateMutability": "nonpayable",
      "type": "function"
    },
    {
      "inputs": [
        {
          "internalType": "bytes4",
          "name": "interfaceId",
          "type": "bytes4"
        }
      ],
      "name": "supportsInterface",
      "outputs": [
        {
          "internalType": "bool",
          "name": "",
          "type": "bool"
        }
      ],
      "stateMutability": "view",
      "type": "function"
    },
    {
      "inputs": [
        {
          "internalType": "uint256",
          "name": "",
          "type": "uint256"
        }
      ],
      "name": "uri",
      "outputs": [
        {
          "internalType": "string",
          "name": "",
          "type": "string"
        }
      ],
      "stateMutability": "view",
      "type": "function"
    },
    {
      "inputs": [
        {
          "internalType": "uint256",
          "name": "",
          "type": "uint256"
        }
      ],
      "name": "vouchers",
      "outputs": [
        {
          "internalType": "uint256",
          "name": "id",
          "type": "uint256"
        },
        {
          "internalType": "uint256",
          "name": "programId",
          "type": "uint256"
        },
        {
          "internalType": "bytes32",
          "name": "beneficiaryHash",
          "type": "bytes32"
        },
        {
          "internalType": "uint256",
          "name": "issuedAt",
          "type": "uint256"
        },
        {
          "internalType": "uint256",
          "name": "redeemedAt",
          "type": "uint256"
        },
        {
          "internalType": "uint256",
          "name": "expiresAt",
          "type": "uint256"
        },
        {
          "internalType": "enum AidVoucher.VoucherStatus",
          "name": "status",
          "type": "uint8"
        }
      ],
      "stateMutability": "view",
      "type": "function"
    }
  ],
  "bytecode": "0x608060405260016003553480156200001657600080fd5b50604051806060016040528060218152602001620019f3602191396200003c8162000043565b50620001c8565b6002620000518282620000fc565b5050565b634e487b7160e01b600052604160045260246000fd5b600181811c908216806200008057607f821691505b602082108103620000a157634e487b7160e01b600052602260045260246000fd5b50919050565b601f821115620000f7576000816000526020600020601f850160051c81016020861015620000d25750805b601f850160051c820191505b81811015620000f357828155600101620000de565b5050505b505050565b81516001600160401b0381111562000118576200011862000055565b62000130816200012984546200006b565b84620000a7565b602080601f8311600181146200016857600084156200014f5750858301515b600019600386901b1c1916600185901b178555620000f3565b600085815260208120601f198616915b82811015620001995788860151825594840194600190910190840162000178565b5085821015620001b85787850151600019600388901b60f8161c191681555b5050505050600190811b01905550565b61181b80620001d86000396000f3fe608060405234801561001057600080fd5b50600436106100e95760003560e01c80634e1273f41161008c578063e985e9c511610066578063e985e9c514610239578063f242432a14610275578063fc3d63a614610283578063fe7c7bcf1461029657600080fd5b80634e1273f4146101f3578063993983a214610213578063a22cb4651461022657600080fd5b80631c6d6b5e116100c85780631c6d6b5e146101575780632eb2c2d61461016c5780633e97b43f1461017f5780634684ba68146101e057600080fd5b8062fdd58e146100ee57806301ffc9a7146101145780630e89341c14610137575b600080fd5b6101016100fc3660046110a9565b61029f565b6040519081526020015b60405180910390f35b6101276101223660046110ec565b610338565b604051901515815260200161010b565b61014a610145366004611110565b610388565b60405161010b919061116f565b61016a610165366004611110565b61041c565b005b61016a61017a3660046112d3565b610600565b6101cd61018d366004611110565b6004602081905260009182526040909120805460018201546002830154600384015494840154600585015460069095015493959294919390919060ff1687565b60405161010b9796959493929190611393565b6101016101ee3660046113ec565b610648565b610206610201366004611425565b61085d565b60405161010b91906114f0565b610101610221366004611534565b61097f565b61016a610234366004611560565b610995565b61012761024736600461159c565b6001600160a01b03918216600090815260016020908152604080832093909416825291909152205460ff1690565b61016a61017a3660046115cf565b61016a610291366004611110565b6109a4565b61010160035481565b60006001600160a01b03831661030f5760405162461bcd60e51b815260206004820152602a60248201527f455243313135353a2061646472657373207a65726f206973206e6f742061207660448201526930b634b21037bbb732b960b11b60648201526084015b60405180910390fd5b506000818152602081815260408083206001600160a01b03861684529091529020545b92915050565b60006001600160e01b03198216636cdb3d1360e11b148061036957506001600160e01b031982166303a24d0760e21b145b8061033257506301ffc9a760e01b6001600160e01b0319831614610332565b60606002805461039790611634565b80601f01602080910402602001604051908101604052809291908181526020018280546103c390611634565b80156104105780601f106103e557610100808354040283529160200191610410565b820191906000526020600020905b8154815290600101906020018083116103f357829003601f168201915b50505050509050919050565b6000818152600460205260408120805490910361046d5760405162461bcd60e51b815260206004820152600f60248201526e766f7563686572206d697373696e6760881b6044820152606401610306565b6000600682015460ff1660038111156104885761048861137d565b146104c85760405162461bcd60e51b815260206004820152601060248201526f185b1c9958591e4818dbdb9cdd5b595960821b6044820152606401610306565b6104d2338361029f565b6001146105135760405162461bcd60e51b815260206004820152600f60248201526e1a1bdb19195c881c995c5d5a5c9959608a1b6044820152606401610306565b80600501544211156105685760068101805460ff1916600217905560405162461bcd60e51b815260206004820152600f60248201526e1d9bdd58da195c88195e1c1a5c9959608a1b6044820152606401610306565b61057433836001610b32565b60068101805460ff191660011790554260048201819055604051908152339083907f0edb83c4fc5d7b765d4799aa83c556014ed31d0a68e4ef8bec3ad3cb1a9e380d9060200160405180910390a3817f9858e43b30e515fa1a353b07b40d6b983d31978813fae80621c5454226906a01426040516105f491815260200190565b60405180910390a25050565b60405162461bcd60e51b815260206004820152601860248201527f766f7563686572206e6f6e2d7472616e7366657261626c6500000000000000006044820152606401610306565b60006001600160a01b0385166106945760405162461bcd60e51b81526020600482015260116024820152701a5b9d985b1a59081c9958da5c1a595b9d607a1b6044820152606401610306565b826106d75760405162461bcd60e51b8152602060048201526013602482015272696e76616c69642062656e656669636961727960681b6044820152606401610306565b600082116107185760405162461bcd60e51b815260206004820152600e60248201526d696e76616c69642065787069727960901b6044820152606401610306565b600380546000918261072983611684565b9190505590506040518060e00160405280828152602001868152602001858152602001428152602001600081526020018462015180610768919061169d565b61077290426116b4565b8152602001600081525060046000838152602001908152602001600020600082015181600001556020820151816001015560408201518160020155606082015181600301556080820151816004015560a0820151816005015560c08201518160060160006101000a81548160ff021916908360038111156107f5576107f561137d565b02179055509050506108198682600160405180602001604052806000815250610cb3565b84817f6d2dd6195bdee1b9defe5ceb13f6ecf20bf6965f42b79e7df79a0936cfc0a8cb8660405161084c91815260200190565b60405180910390a395945050505050565b606081518351146108c25760405162461bcd60e51b815260206004820152602960248201527f455243313135353a206163636f756e747320616e6420696473206c656e677468604482015268040dad2e6dac2e8c6d60bb1b6064820152608401610306565b6000835167ffffffffffffffff8111156108de576108de611182565b604051908082528060200260200182016040528015610907578160200160208202803683370190505b50905060005b84518110156109775761095285828151811061092b5761092b6116c7565b6020026020010151858381518110610945576109456116c7565b602002602001015161029f565b828281518110610964576109646116c7565b602090810291909101015260010161090d565b509392505050565b600061098d33858585610648565b949350505050565b6109a0338383610dbe565b5050565b600081815260046020526040812080549091036109f55760405162461bcd60e51b815260206004820152600f60248201526e766f7563686572206d697373696e6760881b6044820152606401610306565b6000600682015460ff166003811115610a1057610a1061137d565b14610a505760405162461bcd60e51b815260206004820152601060248201526f185b1c9958591e4818dbdb9cdd5b595960821b6044820152606401610306565b80600501544211610a915760405162461bcd60e51b815260206004820152600b60248201526a1b9bdd08195e1c1a5c995960aa1b6044820152606401610306565b610a9b338361029f565b600114610adc5760405162461bcd60e51b815260206004820152600f60248201526e1a1bdb19195c881c995c5d5a5c9959608a1b6044820152606401610306565b610ae833836001610b32565b60068101805460ff19166002179055604051428152339083907f0edb83c4fc5d7b765d4799aa83c556014ed31d0a68e4ef8bec3ad3cb1a9e380d9060200160405180910390a35050565b6001600160a01b038316610b945760405162461bcd60e51b815260206004820152602360248201527f455243313135353a206275726e2066726f6d20746865207a65726f206164647260448201526265737360e81b6064820152608401610306565b336000610ba084610e9e565b90506000610bad84610e9e565b60408051602080820183526000918290528882528181528282206001600160a01b038b1683529052205490915084811015610c365760405162461bcd60e51b8152602060048201526024808201527f455243313135353a206275726e20616d6f756e7420657863656564732062616c604482015263616e636560e01b6064820152608401610306565b6000868152602081815260408083206001600160a01b038b81168086529184528285208a8703905582518b81529384018a90529092908816917fc3d58168c5ae7397731d063d5bbf3d657854427343f4c083240f7aacaa2d0f62910160405180910390a46040805160208101909152600090525b50505050505050565b6001600160a01b038416610d135760405162461bcd60e51b815260206004820152602160248201527f455243313135353a206d696e7420746f20746865207a65726f206164647265736044820152607360f81b6064820152608401610306565b336000610d1f85610e9e565b90506000610d2c85610e9e565b90506000868152602081815260408083206001600160a01b038b16845290915281208054879290610d5e9084906116b4565b909155505060408051878152602081018790526001600160a01b03808a1692600092918716917fc3d58168c5ae7397731d063d5bbf3d657854427343f4c083240f7aacaa2d0f62910160405180910390a4610caa83600089898989610ef1565b816001600160a01b0316836001600160a01b031603610e315760405162461bcd60e51b815260206004820152602960248201527f455243313135353a2073657474696e6720617070726f76616c20737461747573604482015268103337b91039b2b63360b91b6064820152608401610306565b6001600160a01b03838116600081815260016020908152604080832094871680845294825291829020805460ff191686151590811790915591519182527f17307eab39ab6107e8899845ad3d59bd9653f200f220920489ca2b5937696c31910160405180910390a3505050565b60408051600180825281830190925260609160009190602080830190803683370190505090508281600081518110610ed857610ed86116c7565b602090810291909101015292915050565b505050505050565b6001600160a01b0384163b15610ee95760405163f23a6e6160e01b81526001600160a01b0385169063f23a6e6190610f3590899089908890889088906004016116dd565b6020604051808303816000875af1925050508015610f70575060408051601f3d908101601f19168201909252610f6d91810190611722565b60015b61101c57610f7c61173f565b806308c379a003610fb55750610f9061175b565b80610f9b5750610fb7565b8060405162461bcd60e51b8152600401610306919061116f565b505b60405162461bcd60e51b815260206004820152603460248201527f455243313135353a207472616e7366657220746f206e6f6e2d455243313135356044820152732932b1b2b4bb32b91034b6b83632b6b2b73a32b960611b6064820152608401610306565b6001600160e01b0319811663f23a6e6160e01b14610caa5760405162461bcd60e51b815260206004820152602860248201527f455243313135353a204552433131353552656365697665722072656a656374656044820152676420746f6b656e7360c01b6064820152608401610306565b80356001600160a01b03811681146110a457600080fd5b919050565b600080604083850312156110bc57600080fd5b6110c58361108d565b946020939093013593505050565b6001600160e01b0319811681146110e957600080fd5b50565b6000602082840312156110fe57600080fd5b8135611109816110d3565b9392505050565b60006020828403121561112257600080fd5b5035919050565b6000815180845260005b8181101561114f57602081850181015186830182015201611133565b506000602082860101526020601f19601f83011685010191505092915050565b6020815260006111096020830184611129565b634e487b7160e01b600052604160045260246000fd5b601f8201601f1916810167ffffffffffffffff811182821017156111be576111be611182565b6040525050565b600067ffffffffffffffff8211156111df576111df611182565b5060051b60200190565b600082601f8301126111fa57600080fd5b81356020611207826111c5565b6040516112148282611198565b80915083815260208101915060208460051b87010193508684111561123857600080fd5b602086015b84811015611254578035835291830191830161123d565b509695505050505050565b600082601f83011261127057600080fd5b813567ffffffffffffffff81111561128a5761128a611182565b6040516112a1601f8301601f191660200182611198565b8181528460208386010111156112b657600080fd5b816020850160208301376000918101602001919091529392505050565b600080600080600060a086880312156112eb57600080fd5b6112f48661108d565b94506113026020870161108d565b9350604086013567ffffffffffffffff8082111561131f57600080fd5b61132b89838a016111e9565b9450606088013591508082111561134157600080fd5b61134d89838a016111e9565b9350608088013591508082111561136357600080fd5b506113708882890161125f565b9150509295509295909350565b634e487b7160e01b600052602160045260246000fd5b600060e0820190508882528760208301528660408301528560608301528460808301528360a0830152600483106113da57634e487b7160e01b600052602160045260246000fd5b8260c083015298975050505050505050565b6000806000806080858703121561140257600080fd5b61140b8561108d565b966020860135965060408601359560600135945092505050565b6000806040838503121561143857600080fd5b823567ffffffffffffffff8082111561145057600080fd5b818501915085601f83011261146457600080fd5b81356020611471826111c5565b60405161147e8282611198565b83815260059390931b850182019282810191508984111561149e57600080fd5b948201945b838610156114c3576114b48661108d565b825294820194908201906114a3565b965050860135925050808211156114d957600080fd5b506114e6858286016111e9565b9150509250929050565b6020808252825182820181905260009190848201906040850190845b818110156115285783518352928401929184019160010161150c565b50909695505050505050565b60008060006060848603121561154957600080fd5b505081359360208301359350604090920135919050565b6000806040838503121561157357600080fd5b61157c8361108d565b91506020830135801515811461159157600080fd5b809150509250929050565b600080604083850312156115af57600080fd5b6115b88361108d565b91506115c66020840161108d565b90509250929050565b600080600080600060a086880312156115e757600080fd5b6115f08661108d565b94506115fe6020870161108d565b93506040860135925060608601359150608086013567ffffffffffffffff81111561162857600080fd5b6113708882890161125f565b600181811c9082168061164857607f821691505b60208210810361166857634e487b7160e01b600052602260045260246000fd5b50919050565b634e487b7160e01b600052601160045260246000fd5b6000600182016116965761169661166e565b5060010190565b80820281158282048414176103325761033261166e565b808201808211156103325761033261166e565b634e487b7160e01b600052603260045260246000fd5b6001600160a01b03868116825285166020820152604081018490526060810183905260a06080820181905260009061171790830184611129565b979650505050505050565b60006020828403121561173457600080fd5b8151611109816110d3565b600060033d11156117585760046000803e5060005160e01c5b90565b600060443d10156117695790565b6040516003193d81016004833e81513d67ffffffffffffffff816024840111818411171561179957505050505090565b82850191508151818111156117b15750505050505090565b843d87010160208285010111156117cb5750505050505090565b6117da60208286010187611198565b50909594505050505056fea26469706673582212205272702b43b13173f7c342c1982d1a1c0db1befbf115226bd59e7ed77616367864736f6c63430008180033697066733a2f2f70726f6f666169642d766f75636865722f7b69647d2e6a736f6e",
  "linkReferences": {},
  "deployedLinkReferences": {}
}