{
  "_format": "hh-sol-artifact-1",
  "contractName": "AidVoucher",
  "sourceName": "contracts/AidVoucher.sol",
  "abi": [
    {
      "anonymous": false,
      "inputs": [
        {
          "indexed": true,
          "internalType": "uint256",
          "name": "voucherId",
          "type": "uint256"
        },
        {
          "indexed": true,
          "internalType": "uint256",
          "name": "programId",
          "type": "uint256"
        },
        {
          "indexed": false,
          "internalType": "bytes32",
          "name": "beneficiaryHash",
          "type": "bytes32"
        }
      ],
      "name": "VoucherIssued",
      "type": "event"
    },
    {
      "anonymous": false,
      "inputs": [
        {
          "indexed": true,
          "internalType": "uint256",
          "name": "voucherId",
          "type": "uint256"
        },
        {
          "indexed": false,
          "internalType": "uint256",
          "name": "redeemedAt",
          "type": "uint256"
        }
      ],
      "name": "VoucherRedeemed",
      "type": "event"
    },
    {
      "inputs": [
        {
          "internalType": "uint256",
          "name": "programId",
          "type": "uint256"
        },
        {
          "internalType": "bytes32",
          "name": "beneficiaryHash",
          "type": "bytes32"
        },
        {
          "internalType": "uint256",
          "name": "expiryDays",
          "type": "uint256"
        }
      ],
      "name": "issueVoucher",
      "outputs": [
        {
          "internalType": "uint256",
          "name": "",
          "type": "uint256"
        }
      ],
      "stateMutability": "nonpayable",
      "type": "function"
    },
    {
      "inputs": [],
      "name": "nextVoucherId",
      "outputs": [
        {
          "internalType": "uint256",
          "name": "",
          "type": "uint256"
        }
      ],
      "stateMutability": "view",
      "type": "function"
    },
    {
      "inputs": [
        {
          "internalType": "uint256",
          "name": "voucherId",
          "type": "uint256"
        }
      ],
      "name": "redeemVoucher",
      "outputs": [],
      "stateMutability": "nonpayable",
      "type": "function"
    },
    {
      "inputs": [
        {
          "internalType": "uint256",
          "name": "",
          "type": "uint256"
        }
      ],
      "name": "vouchers",
      "outputs": [
        {
          "internalType": "uint256",
          "name": "id",
          "type": "uint256"
        },
        {
          "internalType": "uint256",
          "name": "programId",
          "type": "uint256"
        },
        {
          "internalType": "bytes32",
          "name": "beneficiaryHash",
          "type": "bytes32"
        },
        {
          "internalType": "uint256",
          "name": "issuedAt",
          "type": "uint256"
        },
        {
          "internalType": "uint256",
          "name": "redeemedAt",
          "type": "uint256"
        },
        {
          "internalType": "uint256",
          "name": "expiresAt",
          "type": "uint256"
        },
        {
          "internalType": "enum AidVoucher.VoucherStatus",
          "name": "status",
          "type": "uint8"
        }
      ],
      "stateMutability": "view",
      "type": "function"
    }
  ],
  "bytecode": "0x6080604052600160005534801561001557600080fd5b5061053a806100256000396000f3fe608060405234801561001057600080fd5b506004361061004c5760003560e01c80631c6d6b5e146100515780633e97b43f14610066578063993983a2146100cf578063fe7c7bcf146100f0575b600080fd5b61006461005f3660046103f1565b6100f9565b005b6100b36100743660046103f1565b60016020819052600091825260409091208054918101546002820154600383015460048401546005850154600690950154939492939192909160ff1687565b6040516100c69796959493929190610420565b60405180910390f35b6100e26100dd366004610479565b61024f565b6040519081526020016100c6565b6100e260005481565b6000818152600160205260408120805490910361014f5760405162461bcd60e51b815260206004820152600f60248201526e766f7563686572206d697373696e6760881b60448201526064015b60405180910390fd5b6000600682015460ff16600381111561016a5761016a61040a565b146101aa5760405162461bcd60e51b815260206004820152601060248201526f185b1c9958591e4818dbdb9cdd5b595960821b6044820152606401610146565b80600501544211156101ff5760068101805460ff1916600217905560405162461bcd60e51b815260206004820152600f60248201526e1d9bdd58da195c88195e1c1a5c9959608a1b6044820152606401610146565b60068101805460ff19166001179055426004820181905560405190815282907f9858e43b30e515fa1a353b07b40d6b983d31978813fae80621c5454226906a019060200160405180910390a25050565b6000826102945760405162461bcd60e51b8152602060048201526013602482015272696e76616c69642062656e656669636961727960681b6044820152606401610146565b600082116102d55760405162461bcd60e51b815260206004820152600e60248201526d696e76616c69642065787069727960901b6044820152606401610146565b6000805481806102e4836104bb565b9190505590506040518060e0016040528082815260200186815260200185815260200142815260200160008152602001846201518061032391906104d4565b61032d90426104f1565b81526020016000905260008281526001602081815260409283902084518155908401518183015591830151600283015560608301516003808401919091556080840151600484015560a0840151600584015560c08401516006840180549193909260ff199092169184908111156103a6576103a661040a565b021790555090505084817f6d2dd6195bdee1b9defe5ceb13f6ecf20bf6965f42b79e7df79a0936cfc0a8cb866040516103e191815260200190565b60405180910390a3949350505050565b60006020828403121561040357600080fd5b5035919050565b634e487b7160e01b600052602160045260246000fd5b600060e0820190508882528760208301528660408301528560608301528460808301528360a08301526004831061046757634e487b7160e01b600052602160045260246000fd5b8260c083015298975050505050505050565b60008060006060848603121561048e57600080fd5b505081359360208301359350604090920135919050565b634e487b7160e01b600052601160045260246000fd5b6000600182016104cd576104cd6104a5565b5060010190565b80820281158282048414176104eb576104eb6104a5565b92915050565b808201808211156104eb576104eb6104a556fea2646970667358221220e8bfe0964c6eda083b21892c0885bdea42344b22dae6f7deed41e016185ef87f64736f6c63430008140033",
  "linkReferences": {},
  "deployedLinkReferences": {}
}