{
  "_format": "hh-sol-artifact-1",
  "contractName": "AidProgram",
  "sourceName": "contracts/AidProgram.sol",
  "abi": [
    {
      "anonymous": false,
      "inputs": [
        {
          "indexed": true,
          "internalType": "uint256",
          "name": "programId",
          "type": "uint256"
        }
      ],
      "name": "ProgramClosed",
      "type": "event"
    },
    {
      "anonymous": false,
      "inputs": [
        {
          "indexed": true,
          "internalType": "uint256",
          "name": "programId",
          "type": "uint256"
        },
        {
          "indexed": true,
          "internalType": "address",
          "name": "creator",
          "type": "address"
        },
        {
          "indexed": false,
          "internalType": "uint256",
          "name": "budget",
          "type": "uint256"
        }
      ],
      "name": "ProgramCreated",
      "type": "event"
    },
    {
      "inputs": [
        {
          "internalType": "uint256",
          "name": "programId",
          "type": "uint256"
        },
        {
          "internalType": "uint256",
          "name": "count",
          "type": "uint256"
        }
      ],
      "name": "allocateVoucher",
      "outputs": [],
      "stateMutability": "nonpayable",
      "type": "function"
    },
    {
      "inputs": [
        {
          "internalType": "uint256",
          "name": "",
          "type": "uint256"
        }
      ],
      "name": "allocatedVoucherCount",
      "outputs": [
        {
          "internalType": "uint256",
          "name": "",
          "type": "uint256"
        }
      ],
      "stateMutability": "view",
      "type": "function"
    },
    {
      "inputs": [
        {
          "internalType": "uint256",
          "name": "programId",
          "type": "uint256"
        }
      ],
      "name": "closeProgram",
      "outputs": [],
      "stateMutability": "nonpayable",
      "type": "function"
    },
    {
      "inputs": [
        {
          "internalType": "string",
          "name": "name",
          "type": "string"
        },
        {
          "internalType": "string",
          "name": "description",
          "type": "string"
        },
        {
          "internalType": "uint256",
          "name": "budget",
          "type": "uint256"
        },
        {
          "internalType": "uint256",
          "name": "startDate",
          "type": "uint256"
        },
        {
          "internalType": "uint256",
          "name": "endDate",
          "type": "uint256"
        }
      ],
      "name": "createProgram",
      "outputs": [
        {
          "internalType": "uint256",
          "name": "",
          "type": "uint256"
        }
      ],
      "stateMutability": "nonpayable",
      "type": "function"
    },
    {
      "inputs": [],
      "name": "nextProgramId",
      "outputs": [
        {
          "internalType": "uint256",
          "name": "",
          "type": "uint256"
        }
      ],
      "stateMutability": "view",
      "type": "function"
    },
    {
      "inputs": [
        {
          "internalType": "uint256",
          "name": "",
          "type": "uint256"
        }
      ],
      "name": "programs",
      "outputs": [
        {
          "internalType": "uint256",
          "name": "id",
          "type": "uint256"
        },
        {
          "internalType": "string",
          "name": "name",
          "type": "string"
        },
        {
          "internalType": "string",
          "name": "description",
          "type": "string"
        },
        {
          "internalType": "uint256",
          "name": "budget",
          "type": "uint256"
        },
        {
          "internalType": "uint256",
          "name": "startDate",
          "type": "uint256"
        },
        {
          "internalType": "uint256",
          "name": "endDate",
          "type": "uint256"
        },
        {
          "internalType": "bool",
          "name": "active",
          "type": "bool"
        },
        {
          "internalType": "address",
          "name": "creator",
          "type": "address"
        }
      ],
      "stateMutability": "view",
      "type": "function"
    }
  ],
  "bytecode": "0x6080604052600160005534801561001557600080fd5b50610bc1806100256000396000f3fe608060405234801561001057600080fd5b50600436106100625760003560e01c806317fb8d6b146100675780633a3312ab1461007c5780638d99ef061461008f57806392db2816146100c257806399848279146100e9578063ba71b330146100fc575b600080fd5b61007a61007536600461082e565b610105565b005b61007a61008a366004610850565b61038b565b6100af61009d366004610850565b60026020526000908152604090205481565b6040519081526020015b60405180910390f35b6100d56100d0366004610850565b6104a9565b6040516100b99897969594939291906108af565b6100af6100f736600461095d565b610607565b6100af60005481565b600082815260016020818152604080842081516101008101909252805482529283018054919392840191610138906109e4565b80601f0160208091040260200160405190810160405280929190818152602001828054610164906109e4565b80156101b15780601f10610186576101008083540402835291602001916101b1565b820191906000526020600020905b81548152906001019060200180831161019457829003601f168201915b505050505081526020016002820180546101ca906109e4565b80601f01602080910402602001604051908101604052809291908181526020018280546101f6906109e4565b80156102435780601f1061021857610100808354040283529160200191610243565b820191906000526020600020905b81548152906001019060200180831161022657829003601f168201915b505050918352505060038201546020820152600482015460408201526005820154606082015260069091015460ff81161515608083015261010090046001600160a01b031660a09091015280519091506000036102d95760405162461bcd60e51b815260206004820152600f60248201526e70726f6772616d206d697373696e6760881b60448201526064015b60405180910390fd5b8060c0015161031b5760405162461bcd60e51b815260206004820152600e60248201526d1c1c9bd9dc985b4818db1bdcd95960921b60448201526064016102d0565b60e08101516001600160a01b031633146103635760405162461bcd60e51b81526020600482015260096024820152683737ba1037bbb732b960b91b60448201526064016102d0565b60008381526002602052604081208054849290610381908490610a34565b9091555050505050565b600081815260016020526040812080549091036103dc5760405162461bcd60e51b815260206004820152600f60248201526e70726f6772616d206d697373696e6760881b60448201526064016102d0565b600681015461010090046001600160a01b031633146104295760405162461bcd60e51b81526020600482015260096024820152683737ba1037bbb732b960b91b60448201526064016102d0565b600681015460ff1661046e5760405162461bcd60e51b815260206004820152600e60248201526d185b1c9958591e4818db1bdcd95960921b60448201526064016102d0565b60068101805460ff1916905560405182907fb457637fac1ef99ff6bf955010da728ad8fb43892759909533d2fa40b1d4d43790600090a25050565b6001602081905260009182526040909120805491810180546104ca906109e4565b80601f01602080910402602001604051908101604052809291908181526020018280546104f6906109e4565b80156105435780601f1061051857610100808354040283529160200191610543565b820191906000526020600020905b81548152906001019060200180831161052657829003601f168201915b505050505090806002018054610558906109e4565b80601f0160208091040260200160405190810160405280929190818152602001828054610584906109e4565b80156105d15780601f106105a6576101008083540402835291602001916105d1565b820191906000526020600020905b8154815290600101906020018083116105b457829003601f168201915b505050506003830154600484015460058501546006909501549394919390925060ff81169061010090046001600160a01b031688565b600080841161064a5760405162461bcd60e51b815260206004820152600f60248201526e189d5919d95d081c995c5d5a5c9959608a1b60448201526064016102d0565b8282116106895760405162461bcd60e51b815260206004820152600d60248201526c696e76616c696420646174657360981b60448201526064016102d0565b60008054818061069883610a4d565b9190505590506040518061010001604052808281526020018a8a8080601f016020809104026020016040519081016040528093929190818152602001838380828437600092019190915250505090825250604080516020601f8b0181900481028201810190925289815291810191908a908a9081908401838280828437600092018290525093855250505060208083018990526040808401899052606084018890526001608085018190523360a0909501949094528583528382529091208351815590830151909182019061076d9082610acb565b50604082015160028201906107829082610acb565b50606082015160038201556080820151600482015560a0820151600582015560c08201516006909101805460e0909301516001600160a01b031661010002610100600160a81b0319921515929092166001600160a81b031990931692909217179055604051339082907f7288329ac37d0bf0adc603ea0708a3dba77d9084a8684d27e4fd12686edfbea49061081a9089815260200190565b60405180910390a398975050505050505050565b6000806040838503121561084157600080fd5b50508035926020909101359150565b60006020828403121561086257600080fd5b5035919050565b6000815180845260005b8181101561088f57602081850181015186830182015201610873565b506000602082860101526020601f19601f83011685010191505092915050565b60006101008a83528060208401526108c98184018b610869565b905082810360408401526108dd818a610869565b60608401989098525050608081019490945260a0840192909252151560c08301526001600160a01b031660e0909101529392505050565b60008083601f84011261092657600080fd5b50813567ffffffffffffffff81111561093e57600080fd5b60208301915083602082850101111561095657600080fd5b9250929050565b600080600080600080600060a0888a03121561097857600080fd5b873567ffffffffffffffff8082111561099057600080fd5b61099c8b838c01610914565b909950975060208a01359150808211156109b557600080fd5b506109c28a828b01610914565b989b979a50986040810135976060820135975060809091013595509350505050565b600181811c908216806109f857607f821691505b602082108103610a1857634e487b7160e01b600052602260045260246000fd5b50919050565b634e487b7160e01b600052601160045260246000fd5b80820180821115610a4757610a47610a1e565b92915050565b600060018201610a5f57610a5f610a1e565b5060010190565b634e487b7160e01b600052604160045260246000fd5b601f821115610ac657600081815260208120601f850160051c81016020861015610aa35750805b601f850160051c820191505b81811015610ac257828155600101610aaf565b5050505b505050565b815167ffffffffffffffff811115610ae557610ae5610a66565b610af981610af384546109e4565b84610a7c565b602080601f831160018114610b2e5760008415610b165750858301515b600019600386901b1c1916600185901b178555610ac2565b600085815260208120601f198616915b82811015610b5d57888601518255948401946001909101908401610b3e565b5085821015610b7b5787850151600019600388901b60f8161c191681555b5050505050600190811b0190555056fea26469706673582212200591abf2be19782e788592b20e896002be778d5c2b385d9f246b8ab8a794534f64736f6c63430008140033",
  "linkReferences": {},
  "deployedLinkReferences": {}
}