{
  "_format": "hh-sol-artifact-1",
  "contractName": "BeneficiaryRegistry",
  "sourceName": "contracts/BeneficiaryRegistry.sol",
  "abi": [
    {
      "anonymous": false,
      "inputs": [
        {
          "indexed": true,
          "internalType": "bytes32",
          "name": "identityHash",
          "type": "bytes32"
        },
        {
          "indexed": true,
          "internalType": "uint256",
          "name": "programId",
          "type": "uint256"
        }
      ],
      "name": "BeneficiaryRegistered",
      "type": "event"
    },
    {
      "inputs": [
        {
          "internalType": "bytes32",
          "name": "",
          "type": "bytes32"
        }
      ],
      "name": "beneficiaries",
      "outputs": [
        {
          "internalType": "bytes32",
          "name": "identityHash",
          "type": "bytes32"
        },
        {
          "internalType": "uint256",
          "name": "programId",
          "type": "uint256"
        },
        {
          "internalType": "uint256",
          "name": "createdAt",
          "type": "uint256"
        },
        {
          "internalType": "bool",
          "name": "active",
          "type": "bool"
        }
      ],
      "stateMutability": "view",
      "type": "function"
    },
    {
      "inputs": [
        {
          "internalType": "bytes32",
          "name": "identityHash",
          "type": "bytes32"
        },
        {
          "internalType": "uint256",
          "name": "programId",
          "type": "uint256"
        }
      ],
      "name": "registerBeneficiary",
      "outputs": [],
      "stateMutability": "nonpayable",
      "type": "function"
    }
  ],
  "bytecode": "0x608060405234801561001057600080fd5b50610235806100206000396000f3fe608060405234801561001057600080fd5b50600436106100365760003560e01c806339cd53ee1461003b5780635b825e5114610099575b600080fd5b6100736100493660046101c4565b60006020819052908152604090208054600182015460028301546003909301549192909160ff1684565b604080519485526020850193909352918301521515606082015260800160405180910390f35b6100ac6100a73660046101dd565b6100ae565b005b816100ef5760405162461bcd60e51b815260206004820152600c60248201526b0d2dcecc2d8d2c840d0c2e6d60a31b60448201526064015b60405180910390fd5b6000828152602081905260409020600201541561013f5760405162461bcd60e51b815260206004820152600e60248201526d616c72656164792065786973747360901b60448201526064016100e6565b6040805160808101825283815260208082018481524283850190815260016060850181815260008981529485905286852095518655925190850155516002840155516003909201805460ff1916921515929092179091559051829184917f7cdc72d3df3ebf5c626e07ae9ea6b41e0ea56da2971c02de51cf73ced60a636d9190a35050565b6000602082840312156101d657600080fd5b5035919050565b600080604083850312156101f057600080fd5b5050803592602090910135915056fea2646970667358221220c97a9c1986d04ae9cd46d81282dd0602bacf46e566b9e8d3b78f79dd989e651d64736f6c63430008180033",
  "linkReferences": {},
  "deployedLinkReferences": {}
}